:1000000012C07DC129C028C027C026C058C224C044
:1000100023C022C021C020C01FC093C2D3C21CC0B5
:100020001BC01AC019C011241FBECFEDCDBF10E0F8
:10003000A0E6B0E0EEEAF7E002C005900D92AA3922
:10004000B107D9F720E0AAE9B0E001C01D92AB3BAF
:10005000B207E1F7EDD2A9C3D3CF8091600069E187
:1000600036D38E5C8CBF0895809162008F5F88319B
:1000700018F48093620002C0109262001092B800DF
:1000800008958091AE008F5F8C3318F48093AE009A
:1000900003C01092AE00E8DF1092B8000895282F38
:1000A0008A3098F030916000E82FF0E0832F90E0E4
:1000B00069E170E015D388968E179F073CF4832F73
:1000C00069E105D328E2280F01C02AE026BF20936A
:1000D00061000895EF92FF920F931F93CF93DF93E8
:1000E000CDB7DD27C450CDBF409186005091870029
:1000F000609188007091890049835A836B837C8367
:1001000020919C0030919D002130310549F0223032
:10011000310539F58BE08983809160008C832FC095
:1001200020919A0030919B0037FF06C08EE08983B2
:1001300031952195310902C08CE08983EAE0F0E035
:10014000C901BF01EAD28C83CB01BF01E6D28B8308
:10015000C90164E670E0E1D2CB01BF01DED28A833F
:100160000EC0892B61F4809162002AE0622FC9D20F
:1001700089839A838091AE00C4D28B839C83BE0115
:100180006F5F7F4FE6EAF0E041EB50E08AEAE82E4D
:1001900080E0F82E0AEA10E0DB018D91BD0190E0CD
:1001A00086579F4FDC012C919081DA018C91892B2D
:1001B000D7019C91909589238193922F9827282F7E
:1001C00020952923DA012D93AD018923D7018D9341
:1001D0007D010E171F0701F78AE0CC5FCDBFDF91CD
:1001E000CF911F910F91FF90EF9059CF20919C00DC
:1001F00030919D002130310521F022303105C9F0C8
:1002000027C020919A0030919B00811107C0273EA2
:1002100083E0380724F52F5F3F4F06C02A318CEF6B
:100220003807ECF02150310930939B0020939A005D
:1002300016C090916000811107C0983018F49F5F3C
:10024000909360000ADF0BC09923E1F39150F8CF3F
:10025000811102C016DF01C007DF1092B8001092B2
:10026000B000089560919A0070919B0080E090E04A
:100270007ED26091600070E082E090E078C240B38E
:10028000282F30E050E002C0559547958A95E2F757
:10029000C901880F991F40FD26C0DC01AE55BF4F34
:1002A0002D913C911197FC01E256FF4F203D87E0D4
:1002B000380780F4C90101968D939C932081318188
:1002C000232BD9F4883C9105C0F081E090E0918324
:1002D0008083089580819181039779F082E090E096
:1002E000918380830AC0FC01E256FF4F1182108285
:1002F000FC01EE55FF4F1182108280E008951F929D
:100300000F920FB60F9211242F933F934F935F9349
:100310006F937F938F939F93AF93BF93CF93DF930D
:10032000EF93FF93A8958091B9009091BA009C013A
:100330002F5F3F4F211548E034073CF43093BA005B
:100340002093B900D0E0C0E05AC08F5F97409093EF
:10035000BA008093B9008091B8008F5F8093B80095
:100360008C3318F08EDEC1E001C0C0E08091B70090
:10037000811101C0C1E08091B80080FF09C0C79819
:1003800088B388BBD1E08091B700882329F003C0EF
:1003900088B388BBC79AD0E08091B5009091B60031
:1003A00001969093B6008093B50081159840A0F017
:1003B00080919A0090919B00880F991F2091B9001D
:1003C0003091BA00820F931F9093BA008093B900C6
:1003D0001092B6001092B50080919C0090919D0003
:1003E000892B69F08091B0008F5F8093B0008630D8
:1003F00030F010929D0010929C0034DFC1E080E04C
:100400003EDF882311F080E005C081E038DF8823DB
:1004100031F081E0EBDE81E08093B7003AC02091BB
:100420009E0030919F002230310509F58091A00097
:100430009091A1000297D9F480919C0090919D0029
:10044000019690939D0080939C00039729F410924D
:100450009D0010929C0006DF83E090E09093A10045
:100460008093A00090939F0080939E0012C0809183
:10047000B9009091BA009170892B49F4223031056E
:1004800011F28091A0009091A100029711F2CC236B
:1004900019F08D2F90E01EDEFF91EF91DF91CF914B
:1004A000BF91AF919F918F917F916F915F914F918C
:1004B0003F912F910F900FBE0F901F9018951F9294
:1004C0000F920FB60F9211242F933F934F938F9358
:1004D0009F93AF93BF93EF93FF9388B348B320915B
:1004E000AF0030E0D901AA55BF4FF901EF54FF4FDB
:1004F0009C918081892BF901E655FF4F9081909561
:1005000089238F77942F9078892B88BB22B33091E1
:10051000AF003D5F81E090E001C0880F3A95EAF7B7
:100520008095822382BBFF91EF91BF91AF919F9104
:100530008F914F913F912F910F900FBE0F901F9071
:1005400018951F920F920FB60F9211242F933F937D
:100550004F935F936F937F938F939F93EF93FF934B
:100560008091600090E069E170E0BAD087962091B8
:10057000610030E082179307B4F028B348B380914C
:10058000AF0090E0FC01EF54FF4F308130953423F1
:10059000FC01E655FF4F9081832F892B8F77922F97
:1005A0009078892B88BBFF91EF919F918F917F91DC
:1005B0006F915F914F913F912F910F900FBE0F90D0
:1005C0001F9018951F920F920FB60F9211242F9320
:1005D0003F934F935F936F937F938F939F93AF93CB
:1005E000BF93EF93FF9388B3807888BB82B388670B
:1005F00082BB8091AF0090E0019683709927809331
:10060000AF00892B21F4809161008E5F48DDFF915E
:10061000EF91BF91AF919F918F917F916F915F917A
:100620004F913F912F910F900FBE0F901F901895F3
:100630009CE088E10FB6F894A89581BD0FBE91BDEE
:10064000A89518BA8FEF87BB82B3886782BB81B346
:10065000886781BB80E090E03DDD82B3836082BB30
:100660008A98929885B7836085BF8BB780648BBF6B
:10067000C3E0C0BF8AE013DDF0DC89B7876089BFC3
:10068000C3BF80E090E070D0EC0190939B0080931A
:100690009A0082E090E068D080936000C951DC4FFE
:1006A000CF3CD74088F010929B0010929A0089307E
:1006B00018F084E080936000D5DDCFDC85B78062E0
:1006C00085BF78948895FECF8930B8F3F2CF0024A7
:1006D00080FD060E660F11F08695D1F7802D0895E6
:1006E0000024552704C0080E591F880F991F009732
:1006F00029F076956795B8F37105B9F7802D952F98
:100700000895991B79E004C0991F961708F0961B6D
:10071000881F7A95C9F78095089597FB072E16F4E0
:10072000009406D077FD08D00BD007FC05D03EF42E
:10073000909581959F4F0895709561957F4F08958D
:10074000AA1BBB1B51E107C0AA1FBB1FA617B707F7
:1007500010F0A61BB70B881F991F5A95A9F7809513
:100760009095BC01CD010895A8E142E005C010D0EC
:10077000272F0FC0A82F862FE82FE199FECF05C0A5
:10078000EEBBE09AE3950DB20D924150C8F7089583
:10079000262FE199FECF1CBA8EBB2DBB0FB6F89465
:0E07A000E29AE19A0FBE01960895F894FFCFF9
:1007AE00040A0C436F7079726967687420323032B4
:1007BE003220416C656B73616E646572204B616DA6
:1007CE00696E736B69000A0A0A0A3F065B4F666D13
:0A07DE007D077F6F007C395E790013
:00000001FF
