:1000000012C07DC129C028C027C026C05DC224C03F
:1000100023C022C021C020C01FC098C2D8C21CC0AB
:100020001BC01AC019C011241FBECFEDCDBF10E0F8
:10003000A0E6B0E0E8EBF7E002C005900D92A6372D
:10004000B107D9F720E0A6E7B0E001C01D92A739BB
:10005000B207E1F7F2D2AEC3D3CF8091600069E17D
:100060003BD38E5C8CBF0895809162008F5F883196
:1000700018F48093620002C0109262001092940003
:10008000089580918A008F5F8C3318F480938A00E2
:1000900003C010928A00E8DF109294000895282F80
:1000A0008A3098F030916000E82FF0E0832F90E0E4
:1000B00069E170E01AD388968E179F073CF4832F6E
:1000C00069E10AD328E2280F01C02AE026BF209365
:1000D00061000895EF92FF920F931F93CF93DF93E8
:1000E000CDB7DD27C450CDBF40916300509164006F
:1000F000609165007091660049835A836B837C83AD
:1001000020917800309179002130310549F022307A
:10011000310539F58BE08983809160008C832FC095
:10012000209176003091770037FF06C08EE08983FA
:1001300031952195310902C08CE08983EAE0F0E035
:10014000C901BF01EFD28C83CB01BF01EBD28B83FE
:10015000C90164E670E0E6D2CB01BF01E3D28A8335
:100160000EC0892B61F4809162002AE0622FCED20A
:1001700089839A8380918A00C9D28B839C83BE0134
:100180006F5F7F4FE2E8F0E04DE850E086E8E82E50
:1001900080E0F82E06E810E0DB018D91BD0190E0D3
:1001A00089599F4FDC012C919081DA018C91892B28
:1001B000D7019C91909589238193922F9827282F7E
:1001C00020952923DA012D93AD018923D7018D9341
:1001D0007D010E171F0701F78AE0CC5FCDBFDF91CD
:1001E000CF911F910F91FF90EF9059CF2091780000
:1001F000309179002130310521F022303105C9F0EC
:1002000027C02091760030917700811107C0283EE9
:1002100083E0380724F52F5F3F4F06C029318CEF6C
:100220003807ECF0215031093093770020937600A5
:1002300016C090916000811107C0983018F49F5F3C
:10024000909360000ADF0BC09923E1F39150F8CF3F
:10025000811102C016DF01C007DF109294001092D6
:100260008C000895609176007091770080E090E0B6
:1002700083D26091600070E082E090E07DC240B384
:10028000282F30E050E002C0559547958A95E2F757
:10029000C901880F991F40FD26C0DC01A258BF4F3D
:1002A0002D913C911197FC01E658FF4F203D87E0CE
:1002B000380780F4C90101968D939C932081318188
:1002C000232BD9F4883C9105C0F081E090E0918324
:1002D0008083089580819181039779F082E090E096
:1002E000918380830AC0FC01E658FF4F118210827F
:1002F000FC01E258FF4F1182108280E008951F92A6
:100300000F920FB60F9211242F933F934F935F9349
:100310006F937F938F939F93AF93BF93CF93DF930D
:10032000EF93FF93A89580919500909196009C0182
:100330002F5F3F4F211548E034073CF4309396007F
:1003400020939500D0E0C0E05AC08F5F9740909313
:10035000960080939500809194008F5F8093940025
:100360008C3318F08EDEC1E001C0C0E080919300B4
:10037000811101C0C1E08091940080FF09C0C7983D
:1003800088B388BBD1E080919300882329F003C013
:1003900088B388BBC79AD0E0809191009091920079
:1003A0000196909392008093910081159840A0F05F
:1003B0008091760090917700880F991F2091950089
:1003C00030919600820F931F909396008093950032
:1003D0001092920010929100809178009091790093
:1003E000892B69F080918C008F5F80938C00863020
:1003F00030F0109279001092780034DFC1E080E094
:100400003EDF882311F080E005C081E038DF8823DB
:1004100031F081E0EBDE81E0809393003FC02091DA
:100420007A0030917B0080917800909179002230A1
:100430003105F1F440917C0050917D00423051052E
:10044000B9F401969093790080937800039729F48A
:10045000109279001092780005DF83E090E090938D
:100460007D0080937C0090937B0080937A0016C07F
:10047000892B91F480919500909196009170892B31
:1004800059F42230310509F4BECF80917C0090915F
:100490007D00029709F4BDCFCC2319F08D2F90E099
:1004A00019DEFF91EF91DF91CF91BF91AF919F91B5
:1004B0008F917F916F915F914F913F912F910F900D
:1004C0000FBE0F901F9018951F920F920FB60F92AC
:1004D00011242F933F934F938F939F93AF93BF9389
:1004E000EF93FF9388B348B320918B0030E0D9019C
:1004F000AE57BF4FF901E357FF4F9C918081892B85
:10050000F901EA57FF4F9081909589238F77942FB7
:100510009078892B88BB22B330918B003D5F81E0BE
:1005200090E001C0880F3A95EAF78095822382BB5C
:10053000FF91EF91BF91AF919F918F914F913F911B
:100540002F910F900FBE0F901F9018951F920F9232
:100550000FB60F9211242F933F934F935F936F9396
:100560007F938F939F93EF93FF938091600090E030
:1005700069E170E0BAD087962091610030E082177F
:100580009307B4F028B348B380918B0090E0FC014E
:10059000E357FF4F308130953423FC01EA57FF4F7A
:1005A0009081832F892B8F77922F9078892B88BB0E
:1005B000FF91EF919F918F917F916F915F914F91FB
:1005C0003F912F910F900FBE0F901F9018951F9283
:1005D0000F920FB60F9211242F933F934F935F9377
:1005E0006F937F938F939F93AF93BF93EF93FF93FB
:1005F00088B3807888BB82B3886782BB80918B0088
:1006000090E001968370992780938B00892B21F4C9
:10061000809161008E5F43DDFF91EF91BF91AF91BB
:100620009F918F917F916F915F914F913F912F910A
:100630000F900FBE0F901F9018959CE088E10FB6A9
:10064000F894A89581BD0FBE91BDA89518BA8FEFFB
:1006500087BB82B3886782BB81B3886781BB80E038
:1006600090E038DD82B3836082BB8A98929885B728
:10067000836085BF8BB780648BBFC3E0C0BF8AE057
:100680000EDDEBDC89B7876089BFC3BF80E090E0F7
:1006900070D0EC01909377008093760082E090E038
:1006A00068D080936000C951DC4FCF3CD74088F0C0
:1006B0001092770010927600893018F084E08093D1
:1006C0006000D0DDCADC85B7806285BF78948895EC
:1006D000FECF8930B8F3F2CF002480FD060E660FFE
:1006E00011F08695D1F7802D08950024552704C078
:1006F000080E591F880F991F009729F07695679566
:10070000B8F37105B9F7802D952F0895991B79E0FD
:1007100004C0991F961708F0961B881F7A95C9F791
:100720008095089597FB072E16F4009406D077FD68
:1007300008D00BD007FC05D03EF4909581959F4FD3
:100740000895709561957F4F0895AA1BBB1B51E1D9
:1007500007C0AA1FBB1FA617B70710F0A61BB70B31
:10076000881F991F5A95A9F780959095BC01CD01D6
:100770000895A8E142E005C010D0272F0FC0A82F90
:10078000862FE82FE199FECF05C0EEBBE09AE395F6
:100790000DB20D924150C8F70895262FE199FECF72
:1007A0001CBA8EBB2DBB0FB6F894E29AE19A0FBE2D
:0807B00001960895F894FFCFB3
:1007B800040A0C0A0A0A0A3F065B4F666D7D077F2A
:0607C8006F007C395E7930
:00000001FF
